{
  "_format": "hh-sol-artifact-1",
  "contractName": "CredentialSBT",
  "sourceName": "contracts/CredentialSBT.sol",
  "abi": [
    {
      "inputs": [
        {
          "internalType": "address",
          "name": "defaultAdmin",
          "type": "address"
        }
      ],
      "stateMutability": "nonpayable",
      "type": "constructor"
    },
    {
      "inputs": [],
      "name": "AccessControlBadConfirmation",
      "type": "error"
    },
    {
      "inputs": [
        {
          "internalType": "address",
          "name": "account",
          "type": "address"
        },
        {
          "internalType": "bytes32",
          "name": "neededRole",
          "type": "bytes32"
        }
      ],
      "name": "AccessControlUnauthorizedAccount",
      "type": "error"
    },
    {
      "inputs": [
        {
          "internalType": "address",
          "name": "sender",
          "type": "address"
        },
        {
          "internalType": "uint256",
          "name": "tokenId",
          "type": "uint256"
        },
        {
          "internalType": "address",
          "name": "owner",
          "type": "address"
        }
      ],
      "name": "ERC721IncorrectOwner",
      "type": "error"
    },
    {
      "inputs": [
        {
          "internalType": "address",
          "name": "operator",
          "type": "address"
        },
        {
          "internalType": "uint256",
          "name": "tokenId",
          "type": "uint256"
        }
      ],
      "name": "ERC721InsufficientApproval",
      "type": "error"
    },
    {
      "inputs": [
        {
          "internalType": "address",
          "name": "approver",
          "type": "address"
        }
      ],
      "name": "ERC721InvalidApprover",
      "type": "error"
    },
    {
      "inputs": [
        {
          "internalType": "address",
          "name": "operator",
          "type": "address"
        }
      ],
      "name": "ERC721InvalidOperator",
      "type": "error"
    },
    {
      "inputs": [
        {
          "internalType": "address",
          "name": "owner",
          "type": "address"
        }
      ],
      "name": "ERC721InvalidOwner",
      "type": "error"
    },
    {
      "inputs": [
        {
          "internalType": "address",
          "name": "receiver",
          "type": "address"
        }
      ],
      "name": "ERC721InvalidReceiver",
      "type": "error"
    },
    {
      "inputs": [
        {
          "internalType": "address",
          "name": "sender",
          "type": "address"
        }
      ],
      "name": "ERC721InvalidSender",
      "type": "error"
    },
    {
      "inputs": [
        {
          "internalType": "uint256",
          "name": "tokenId",
          "type": "uint256"
        }
      ],
      "name": "ERC721NonexistentToken",
      "type": "error"
    },
    {
      "anonymous": false,
      "inputs": [
        {
          "indexed": true,
          "internalType": "address",
          "name": "owner",
          "type": "address"
        },
        {
          "indexed": true,
          "internalType": "address",
          "name": "approved",
          "type": "address"
        },
        {
          "indexed": true,
          "internalType": "uint256",
          "name": "tokenId",
          "type": "uint256"
        }
      ],
      "name": "Approval",
      "type": "event"
    },
    {
      "anonymous": false,
      "inputs": [
        {
          "indexed": true,
          "internalType": "address",
          "name": "owner",
          "type": "address"
        },
        {
          "indexed": true,
          "internalType": "address",
          "name": "operator",
          "type": "address"
        },
        {
          "indexed": false,
          "internalType": "bool",
          "name": "approved",
          "type": "bool"
        }
      ],
      "name": "ApprovalForAll",
      "type": "event"
    },
    {
      "anonymous": false,
      "inputs": [
        {
          "indexed": false,
          "internalType": "uint256",
          "name": "_fromTokenId",
          "type": "uint256"
        },
        {
          "indexed": false,
          "internalType": "uint256",
          "name": "_toTokenId",
          "type": "uint256"
        }
      ],
      "name": "BatchMetadataUpdate",
      "type": "event"
    },
    {
      "anonymous": false,
      "inputs": [
        {
          "indexed": true,
          "internalType": "address",
          "name": "to",
          "type": "address"
        },
        {
          "indexed": true,
          "internalType": "uint256",
          "name": "tokenId",
          "type": "uint256"
        },
        {
          "indexed": false,
          "internalType": "string",
          "name": "uri",
          "type": "string"
        }
      ],
      "name": "CredentialIssued",
      "type": "event"
    },
    {
      "anonymous": false,
      "inputs": [
        {
          "indexed": true,
          "internalType": "uint256",
          "name": "tokenId",
          "type": "uint256"
        }
      ],
      "name": "CredentialRevoked",
      "type": "event"
    },
    {
      "anonymous": false,
      "inputs": [
        {
          "indexed": false,
          "internalType": "uint256",
          "name": "_tokenId",
          "type": "uint256"
        }
      ],
      "name": "MetadataUpdate",
      "type": "event"
    },
    {
      "anonymous": false,
      "inputs": [
        {
          "indexed": true,
          "internalType": "bytes32",
          "name": "role",
          "type": "bytes32"
        },
        {
          "indexed": true,
          "internalType": "bytes32",
          "name": "previousAdminRole",
          "type": "bytes32"
        },
        {
          "indexed": true,
          "internalType": "bytes32",
          "name": "newAdminRole",
          "type": "bytes32"
        }
      ],
      "name": "RoleAdminChanged",
      "type": "event"
    },
    {
      "anonymous": false,
      "inputs": [
        {
          "indexed": true,
          "internalType": "bytes32",
          "name": "role",
          "type": "bytes32"
        },
        {
          "indexed": true,
          "internalType": "address",
          "name": "account",
          "type": "address"
        },
        {
          "indexed": true,
          "internalType": "address",
          "name": "sender",
          "type": "address"
        }
      ],
      "name": "RoleGranted",
      "type": "event"
    },
    {
      "anonymous": false,
      "inputs": [
        {
          "indexed": true,
          "internalType": "bytes32",
          "name": "role",
          "type": "bytes32"
        },
        {
          "indexed": true,
          "internalType": "address",
          "name": "account",
          "type": "address"
        },
        {
          "indexed": true,
          "internalType": "address",
          "name": "sender",
          "type": "address"
        }
      ],
      "name": "RoleRevoked",
      "type": "event"
    },
    {
      "anonymous": false,
      "inputs": [
        {
          "indexed": true,
          "internalType": "address",
          "name": "from",
          "type": "address"
        },
        {
          "indexed": true,
          "internalType": "address",
          "name": "to",
          "type": "address"
        },
        {
          "indexed": true,
          "internalType": "uint256",
          "name": "tokenId",
          "type": "uint256"
        }
      ],
      "name": "Transfer",
      "type": "event"
    },
    {
      "inputs": [],
      "name": "DEFAULT_ADMIN_ROLE",
      "outputs": [
        {
          "internalType": "bytes32",
          "name": "",
          "type": "bytes32"
        }
      ],
      "stateMutability": "view",
      "type": "function"
    },
    {
      "inputs": [],
      "name": "ISSUER_ROLE",
      "outputs": [
        {
          "internalType": "bytes32",
          "name": "",
          "type": "bytes32"
        }
      ],
      "stateMutability": "view",
      "type": "function"
    },
    {
      "inputs": [
        {
          "internalType": "address",
          "name": "to",
          "type": "address"
        },
        {
          "internalType": "uint256",
          "name": "tokenId",
          "type": "uint256"
        }
      ],
      "name": "approve",
      "outputs": [],
      "stateMutability": "nonpayable",
      "type": "function"
    },
    {
      "inputs": [
        {
          "internalType": "address",
          "name": "owner",
          "type": "address"
        }
      ],
      "name": "balanceOf",
      "outputs": [
        {
          "internalType": "uint256",
          "name": "",
          "type": "uint256"
        }
      ],
      "stateMutability": "view",
      "type": "function"
    },
    {
      "inputs": [
        {
          "internalType": "uint256",
          "name": "tokenId",
          "type": "uint256"
        }
      ],
      "name": "getApproved",
      "outputs": [
        {
          "internalType": "address",
          "name": "",
          "type": "address"
        }
      ],
      "stateMutability": "view",
      "type": "function"
    },
    {
      "inputs": [
        {
          "internalType": "bytes32",
          "name": "role",
          "type": "bytes32"
        }
      ],
      "name": "getRoleAdmin",
      "outputs": [
        {
          "internalType": "bytes32",
          "name": "",
          "type": "bytes32"
        }
      ],
      "stateMutability": "view",
      "type": "function"
    },
    {
      "inputs": [
        {
          "internalType": "bytes32",
          "name": "role",
          "type": "bytes32"
        },
        {
          "internalType": "address",
          "name": "account",
          "type": "address"
        }
      ],
      "name": "grantRole",
      "outputs": [],
      "stateMutability": "nonpayable",
      "type": "function"
    },
    {
      "inputs": [
        {
          "internalType": "bytes32",
          "name": "role",
          "type": "bytes32"
        },
        {
          "internalType": "address",
          "name": "account",
          "type": "address"
        }
      ],
      "name": "hasRole",
      "outputs": [
        {
          "internalType": "bool",
          "name": "",
          "type": "bool"
        }
      ],
      "stateMutability": "view",
      "type": "function"
    },
    {
      "inputs": [
        {
          "internalType": "address",
          "name": "owner",
          "type": "address"
        },
        {
          "internalType": "address",
          "name": "operator",
          "type": "address"
        }
      ],
      "name": "isApprovedForAll",
      "outputs": [
        {
          "internalType": "bool",
          "name": "",
          "type": "bool"
        }
      ],
      "stateMutability": "view",
      "type": "function"
    },
    {
      "inputs": [
        {
          "internalType": "address",
          "name": "to",
          "type": "address"
        },
        {
          "internalType": "string",
          "name": "uri",
          "type": "string"
        }
      ],
      "name": "issueCredential",
      "outputs": [
        {
          "internalType": "uint256",
          "name": "",
          "type": "uint256"
        }
      ],
      "stateMutability": "nonpayable",
      "type": "function"
    },
    {
      "inputs": [],
      "name": "name",
      "outputs": [
        {
          "internalType": "string",
          "name": "",
          "type": "string"
        }
      ],
      "stateMutability": "view",
      "type": "function"
    },
    {
      "inputs": [
        {
          "internalType": "uint256",
          "name": "tokenId",
          "type": "uint256"
        }
      ],
      "name": "ownerOf",
      "outputs": [
        {
          "internalType": "address",
          "name": "",
          "type": "address"
        }
      ],
      "stateMutability": "view",
      "type": "function"
    },
    {
      "inputs": [
        {
          "internalType": "bytes32",
          "name": "role",
          "type": "bytes32"
        },
        {
          "internalType": "address",
          "name": "callerConfirmation",
          "type": "address"
        }
      ],
      "name": "renounceRole",
      "outputs": [],
      "stateMutability": "nonpayable",
      "type": "function"
    },
    {
      "inputs": [
        {
          "internalType": "uint256",
          "name": "tokenId",
          "type": "uint256"
        }
      ],
      "name": "revokeCredential",
      "outputs": [],
      "stateMutability": "nonpayable",
      "type": "function"
    },
    {
      "inputs": [
        {
          "internalType": "bytes32",
          "name": "role",
          "type": "bytes32"
        },
        {
          "internalType": "address",
          "name": "account",
          "type": "address"
        }
      ],
      "name": "revokeRole",
      "outputs": [],
      "stateMutability": "nonpayable",
      "type": "function"
    },
    {
      "inputs": [
        {
          "internalType": "address",
          "name": "from",
          "type": "address"
        },
        {
          "internalType": "address",
          "name": "to",
          "type": "address"
        },
        {
          "internalType": "uint256",
          "name": "tokenId",
          "type": "uint256"
        }
      ],
      "name": "safeTransferFrom",
      "outputs": [],
      "stateMutability": "nonpayable",
      "type": "function"
    },
    {
      "inputs": [
        {
          "internalType": "address",
          "name": "from",
          "type": "address"
        },
        {
          "internalType": "address",
          "name": "to",
          "type": "address"
        },
        {
          "internalType": "uint256",
          "name": "tokenId",
          "type": "uint256"
        },
        {
          "internalType": "bytes",
          "name": "data",
          "type": "bytes"
        }
      ],
      "name": "safeTransferFrom",
      "outputs": [],
      "stateMutability": "nonpayable",
      "type": "function"
    },
    {
      "inputs": [
        {
          "internalType": "address",
          "name": "operator",
          "type": "address"
        },
        {
          "internalType": "bool",
          "name": "approved",
          "type": "bool"
        }
      ],
      "name": "setApprovalForAll",
      "outputs": [],
      "stateMutability": "nonpayable",
      "type": "function"
    },
    {
      "inputs": [
        {
          "internalType": "bytes4",
          "name": "interfaceId",
          "type": "bytes4"
        }
      ],
      "name": "supportsInterface",
      "outputs": [
        {
          "internalType": "bool",
          "name": "",
          "type": "bool"
        }
      ],
      "stateMutability": "view",
      "type": "function"
    },
    {
      "inputs": [],
      "name": "symbol",
      "outputs": [
        {
          "internalType": "string",
          "name": "",
          "type": "string"
        }
      ],
      "stateMutability": "view",
      "type": "function"
    },
    {
      "inputs": [
        {
          "internalType": "uint256",
          "name": "tokenId",
          "type": "uint256"
        }
      ],
      "name": "tokenURI",
      "outputs": [
        {
          "internalType": "string",
          "name": "",
          "type": "string"
        }
      ],
      "stateMutability": "view",
      "type": "function"
    },
    {
      "inputs": [
        {
          "internalType": "address",
          "name": "from",
          "type": "address"
        },
        {
          "internalType": "address",
          "name": "to",
          "type": "address"
        },
        {
          "internalType": "uint256",
          "name": "tokenId",
          "type": "uint256"
        }
      ],
      "name": "transferFrom",
      "outputs": [],
      "stateMutability": "nonpayable",
      "type": "function"
    },
    {
      "inputs": [
        {
          "internalType": "uint256",
          "name": "tokenId",
          "type": "uint256"
        }
      ],
      "name": "verifyCredential",
      "outputs": [
        {
          "internalType": "bool",
          "name": "",
          "type": "bool"
        },
        {
          "internalType": "address",
          "name": "",
          "type": "address"
        },
        {
          "internalType": "string",
          "name": "",
          "type": "string"
        }
      ],
      "stateMutability": "view",
      "type": "function"
    }
  ],
  "bytecode": "0x608060405234801562000010575f80fd5b5060405162003617380380620036178339818101604052810190620000369190620002e2565b6040518060400160405280600d81526020017f43726564656e7469616c534254000000000000000000000000000000000000008152506040518060400160405280600481526020017f4353425400000000000000000000000000000000000000000000000000000000815250815f9081620000b2919062000576565b508060019081620000c4919062000576565b505050620000db5f801b826200011660201b60201c565b506200010e7f114e74f6ea3bd819998f78687bfcb11b140da08e9b7d222fa9c1f1ba1f2aa122826200011660201b60201c565b50506200065a565b5f6200012983836200021260201b60201c565b6200020857600160075f8581526020019081526020015f205f015f8473ffffffffffffffffffffffffffffffffffffffff1673ffffffffffffffffffffffffffffffffffffffff1681526020019081526020015f205f6101000a81548160ff021916908315150217905550620001a46200027660201b60201c565b73ffffffffffffffffffffffffffffffffffffffff168273ffffffffffffffffffffffffffffffffffffffff16847f2f8788117e7eff1d82e926ec794901d17c78024a50270940304540a733656f0d60405160405180910390a4600190506200020c565b5f90505b92915050565b5f60075f8481526020019081526020015f205f015f8373ffffffffffffffffffffffffffffffffffffffff1673ffffffffffffffffffffffffffffffffffffffff1681526020019081526020015f205f9054906101000a900460ff16905092915050565b5f33905090565b5f80fd5b5f73ffffffffffffffffffffffffffffffffffffffff82169050919050565b5f620002ac8262000281565b9050919050565b620002be81620002a0565b8114620002c9575f80fd5b50565b5f81519050620002dc81620002b3565b92915050565b5f60208284031215620002fa57620002f96200027d565b5b5f6200030984828501620002cc565b91505092915050565b5f81519050919050565b7f4e487b71000000000000000000000000000000000000000000000000000000005f52604160045260245ffd5b7f4e487b71000000000000000000000000000000000000000000000000000000005f52602260045260245ffd5b5f60028204905060018216806200038e57607f821691505b602082108103620003a457620003a362000349565b5b50919050565b5f819050815f5260205f209050919050565b5f6020601f8301049050919050565b5f82821b905092915050565b5f60088302620004087fffffffffffffffffffffffffffffffffffffffffffffffffffffffffffffffff82620003cb565b620004148683620003cb565b95508019841693508086168417925050509392505050565b5f819050919050565b5f819050919050565b5f6200045e6200045862000452846200042c565b62000435565b6200042c565b9050919050565b5f819050919050565b62000479836200043e565b62000491620004888262000465565b848454620003d7565b825550505050565b5f90565b620004a762000499565b620004b48184846200046e565b505050565b5b81811015620004db57620004cf5f826200049d565b600181019050620004ba565b5050565b601f8211156200052a57620004f481620003aa565b620004ff84620003bc565b810160208510156200050f578190505b620005276200051e85620003bc565b830182620004b9565b50505b505050565b5f82821c905092915050565b5f6200054c5f19846008026200052f565b1980831691505092915050565b5f6200056683836200053b565b9150826002028217905092915050565b620005818262000312565b67ffffffffffffffff8111156200059d576200059c6200031c565b5b620005a9825462000376565b620005b6828285620004df565b5f60209050601f831160018114620005ec575f8415620005d7578287015190505b620005e3858262000559565b86555062000652565b601f198416620005fc86620003aa565b5f5b828110156200062557848901518255600182019150602085019450602081019050620005fe565b8683101562000645578489015162000641601f8916826200053b565b8355505b6001600288020188555050505b505050505050565b612faf80620006685f395ff3fe608060405234801561000f575f80fd5b506004361061014b575f3560e01c806370a08231116100c1578063a22cb4651161007a578063a22cb465146103bf578063b88d4fde146103db578063c87b56dd146103f7578063d547741f14610427578063e985e9c514610443578063f2a91b1c146104735761014b565b806370a08231146102d557806382aefa241461030557806390c7c49c1461032357806391d148541461035357806395d89b4114610383578063a217fddf146103a15761014b565b806323b872dd1161011357806323b872dd14610205578063248a9ca3146102215780632f2ff15d1461025157806336568abe1461026d57806342842e0e146102895780636352211e146102a55761014b565b806301ffc9a71461014f57806306fdde031461017f578063081812fc1461019d578063095ea7b3146101cd5780631b87278d146101e9575b5f80fd5b610169600480360381019061016491906121a1565b6104a5565b60405161017691906121e6565b60405180910390f35b6101876104b6565b6040516101949190612289565b60405180910390f35b6101b760048036038101906101b291906122dc565b610545565b6040516101c49190612346565b60405180910390f35b6101e760048036038101906101e29190612389565b610560565b005b61020360048036038101906101fe91906122dc565b610576565b005b61021f600480360381019061021a91906123c7565b61070c565b005b61023b6004803603810190610236919061244a565b61080b565b6040516102489190612484565b60405180910390f35b61026b6004803603810190610266919061249d565b610828565b005b6102876004803603810190610282919061249d565b61084a565b005b6102a3600480360381019061029e91906123c7565b6108c5565b005b6102bf60048036038101906102ba91906122dc565b6108e4565b6040516102cc9190612346565b60405180910390f35b6102ef60048036038101906102ea91906124db565b6108f5565b6040516102fc9190612515565b60405180910390f35b61030d6109ab565b60405161031a9190612484565b60405180910390f35b61033d6004803603810190610338919061265a565b6109cf565b60405161034a9190612515565b60405180910390f35b61036d6004803603810190610368919061249d565b610abf565b60405161037a91906121e6565b60405180910390f35b61038b610b23565b6040516103989190612289565b60405180910390f35b6103a9610bb3565b6040516103b69190612484565b60405180910390f35b6103d960048036038101906103d491906126de565b610bb9565b005b6103f560048036038101906103f091906127ba565b610bcf565b005b610411600480360381019061040c91906122dc565b610bf4565b60405161041e9190612289565b60405180910390f35b610441600480360381019061043c919061249d565b610c70565b005b61045d6004803603810190610458919061283a565b610c92565b60405161046a91906121e6565b60405180910390f35b61048d600480360381019061048891906122dc565b610d20565b60405161049c93929190612878565b60405180910390f35b5f6104af82610d71565b9050919050565b60605f80546104c4906128e1565b80601f01602080910402602001604051908101604052809291908181526020018280546104f0906128e1565b801561053b5780601f106105125761010080835404028352916020019161053b565b820191905f5260205f20905b81548152906001019060200180831161051e57829003601f168201915b5050505050905090565b5f61054f82610dea565b5061055982610e70565b9050919050565b610572828261056d610ea9565b610eb0565b5050565b6105a07f114e74f6ea3bd819998f78687bfcb11b140da08e9b7d222fa9c1f1ba1f2aa12233610abf565b6105df576040517f08c379a00000000000000000000000000000000000000000000000000000000081526004016105d69061295b565b60405180910390fd5b5f73ffffffffffffffffffffffffffffffffffffffff166105ff826108e4565b73ffffffffffffffffffffffffffffffffffffffff1603610655576040517f08c379a000000000000000000000000000000000000000000000000000000000815260040161064c906129c3565b60405180910390fd5b60095f8281526020019081526020015f205f9054906101000a900460ff16156106b3576040517f08c379a00000000000000000000000000000000000000000000000000000000081526004016106aa90612a2b565b60405180910390fd5b600160095f8381526020019081526020015f205f6101000a81548160ff021916908315150217905550807f0d47d5695004d2a4180ebb40037756439184993a0d1c6d4a8ff3a6aa9325607460405160405180910390a250565b5f73ffffffffffffffffffffffffffffffffffffffff168273ffffffffffffffffffffffffffffffffffffffff160361077c575f6040517f64a0ae920000000000000000000000000000000000000000000000000000000081526004016107739190612346565b60405180910390fd5b5f61078f838361078a610ea9565b610ec2565b90508373ffffffffffffffffffffffffffffffffffffffff168173ffffffffffffffffffffffffffffffffffffffff1614610805578382826040517f64283d7b0000000000000000000000000000000000000000000000000000000081526004016107fc93929190612a49565b60405180910390fd5b50505050565b5f60075f8381526020019081526020015f20600101549050919050565b6108318261080b565b61083a81610f88565b6108448383610f9c565b50505050565b610852610ea9565b73ffffffffffffffffffffffffffffffffffffffff168173ffffffffffffffffffffffffffffffffffffffff16146108b6576040517f6697b23200000000000000000000000000000000000000000000000000000000815260040160405180910390fd5b6108c08282611086565b505050565b6108df83838360405180602001604052805f815250610bcf565b505050565b5f6108ee82610dea565b9050919050565b5f8073ffffffffffffffffffffffffffffffffffffffff168273ffffffffffffffffffffffffffffffffffffffff1603610966575f6040517f89c62b6400000000000000000000000000000000000000000000000000000000815260040161095d9190612346565b60405180910390fd5b60035f8373ffffffffffffffffffffffffffffffffffffffff1673ffffffffffffffffffffffffffffffffffffffff1681526020019081526020015f20549050919050565b7f114e74f6ea3bd819998f78687bfcb11b140da08e9b7d222fa9c1f1ba1f2aa12281565b5f6109fa7f114e74f6ea3bd819998f78687bfcb11b140da08e9b7d222fa9c1f1ba1f2aa12233610abf565b610a39576040517f08c379a0000000000000000000000000000000000000000000000000000000008152600401610a309061295b565b60405180910390fd5b5f60085f815480929190610a4c90612aab565b919050559050610a5c8482611170565b610a66818461118d565b808473ffffffffffffffffffffffffffffffffffffffff167f878af15bdbd77fda76749958672993937bbbcbd73501fdc8989af2ff8c95aebe85604051610aad9190612289565b60405180910390a38091505092915050565b5f60075f8481526020019081526020015f205f015f8373ffffffffffffffffffffffffffffffffffffffff1673ffffffffffffffffffffffffffffffffffffffff1681526020019081526020015f205f9054906101000a900460ff16905092915050565b606060018054610b32906128e1565b80601f0160208091040260200160405190810160405280929190818152602001828054610b5e906128e1565b8015610ba95780601f10610b8057610100808354040283529160200191610ba9565b820191905f5260205f20905b815481529060010190602001808311610b8c57829003601f168201915b5050505050905090565b5f801b81565b610bcb610bc4610ea9565b83836111e7565b5050565b610bda84848461070c565b610bee610be5610ea9565b858585856113c0565b50505050565b6060610bff82610dea565b505f610c0961156c565b90505f610c1584611582565b90505f825103610c29578092505050610c6b565b5f81511115610c5d578181604051602001610c45929190612b2c565b60405160208183030381529060405292505050610c6b565b610c6684611623565b925050505b919050565b610c798261080b565b610c8281610f88565b610c8c8383611086565b50505050565b5f60055f8473ffffffffffffffffffffffffffffffffffffffff1673ffffffffffffffffffffffffffffffffffffffff1681526020019081526020015f205f8373ffffffffffffffffffffffffffffffffffffffff1673ffffffffffffffffffffffffffffffffffffffff1681526020019081526020015f205f9054906101000a900460ff16905092915050565b5f8060605f610d2e856108e4565b90505f60095f8781526020019081526020015f205f9054906101000a900460ff1690505f610d5b87610bf4565b9050811583829550955095505050509193909250565b5f7f7965db0b000000000000000000000000000000000000000000000000000000007bffffffffffffffffffffffffffffffffffffffffffffffffffffffff1916827bffffffffffffffffffffffffffffffffffffffffffffffffffffffff19161480610de35750610de282611689565b5b9050919050565b5f80610df5836116e9565b90505f73ffffffffffffffffffffffffffffffffffffffff168173ffffffffffffffffffffffffffffffffffffffff1603610e6757826040517f7e273289000000000000000000000000000000000000000000000000000000008152600401610e5e9190612515565b60405180910390fd5b80915050919050565b5f60045f8381526020019081526020015f205f9054906101000a900473ffffffffffffffffffffffffffffffffffffffff169050919050565b5f33905090565b610ebd8383836001611722565b505050565b5f80610ecd846116e9565b90505f73ffffffffffffffffffffffffffffffffffffffff168173ffffffffffffffffffffffffffffffffffffffff161480610f3457505f73ffffffffffffffffffffffffffffffffffffffff168573ffffffffffffffffffffffffffffffffffffffff16145b610f73576040517f08c379a0000000000000000000000000000000000000000000000000000000008152600401610f6a90612b99565b60405180910390fd5b610f7e8585856118e1565b9150509392505050565b610f9981610f94610ea9565b611aec565b50565b5f610fa78383610abf565b61107c57600160075f8581526020019081526020015f205f015f8473ffffffffffffffffffffffffffffffffffffffff1673ffffffffffffffffffffffffffffffffffffffff1681526020019081526020015f205f6101000a81548160ff021916908315150217905550611019610ea9565b73ffffffffffffffffffffffffffffffffffffffff168273ffffffffffffffffffffffffffffffffffffffff16847f2f8788117e7eff1d82e926ec794901d17c78024a50270940304540a733656f0d60405160405180910390a460019050611080565b5f90505b92915050565b5f6110918383610abf565b15611166575f60075f8581526020019081526020015f205f015f8473ffffffffffffffffffffffffffffffffffffffff1673ffffffffffffffffffffffffffffffffffffffff1681526020019081526020015f205f6101000a81548160ff021916908315150217905550611103610ea9565b73ffffffffffffffffffffffffffffffffffffffff168273ffffffffffffffffffffffffffffffffffffffff16847ff6391f5c32d9c69d2a47ea670b442974b53935d1edc7fd64eb21e047a839171b60405160405180910390a46001905061116a565b5f90505b92915050565b611189828260405180602001604052805f815250611b3d565b5050565b8060065f8481526020019081526020015f2090816111ab9190612d54565b507ff8e1a15aba9398e019f0b49df1a4fde98ee17ae345cb5f6b5e2c27f5033e8ce7826040516111db9190612515565b60405180910390a15050565b5f73ffffffffffffffffffffffffffffffffffffffff168373ffffffffffffffffffffffffffffffffffffffff1603611257575f6040517fa9fbf51f00000000000000000000000000000000000000000000000000000000815260040161124e9190612346565b60405180910390fd5b5f73ffffffffffffffffffffffffffffffffffffffff168273ffffffffffffffffffffffffffffffffffffffff16036112c757816040517f5b08ba180000000000000000000000000000000000000000000000000000000081526004016112be9190612346565b60405180910390fd5b8060055f8573ffffffffffffffffffffffffffffffffffffffff1673ffffffffffffffffffffffffffffffffffffffff1681526020019081526020015f205f8473ffffffffffffffffffffffffffffffffffffffff1673ffffffffffffffffffffffffffffffffffffffff1681526020019081526020015f205f6101000a81548160ff0219169083151502179055508173ffffffffffffffffffffffffffffffffffffffff168373ffffffffffffffffffffffffffffffffffffffff167f17307eab39ab6107e8899845ad3d59bd9653f200f220920489ca2b5937696c31836040516113b391906121e6565b60405180910390a3505050565b5f8373ffffffffffffffffffffffffffffffffffffffff163b1115611565578273ffffffffffffffffffffffffffffffffffffffff1663150b7a02868685856040518563ffffffff1660e01b815260040161141e9493929190612e75565b6020604051808303815f875af192505050801561145957506040513d601f19601f820116820180604052508101906114569190612ed3565b60015b6114da573d805f8114611487576040519150601f19603f3d011682016040523d82523d5f602084013e61148c565b606091505b505f8151036114d257836040517f64a0ae920000000000000000000000000000000000000000000000000000000081526004016114c99190612346565b60405180910390fd5b805160208201fd5b63150b7a0260e01b7bffffffffffffffffffffffffffffffffffffffffffffffffffffffff1916817bffffffffffffffffffffffffffffffffffffffffffffffffffffffff19161461156357836040517f64a0ae9200000000000000000000000000000000000000000000000000000000815260040161155a9190612346565b60405180910390fd5b505b5050505050565b606060405180602001604052805f815250905090565b606060065f8381526020019081526020015f2080546115a0906128e1565b80601f01602080910402602001604051908101604052809291908181526020018280546115cc906128e1565b80156116175780601f106115ee57610100808354040283529160200191611617565b820191905f5260205f20905b8154815290600101906020018083116115fa57829003601f168201915b50505050509050919050565b606061162e82610dea565b505f61163861156c565b90505f8151116116565760405180602001604052805f815250611681565b8061166084611b60565b604051602001611671929190612b2c565b6040516020818303038152906040525b915050919050565b5f634906490660e01b7bffffffffffffffffffffffffffffffffffffffffffffffffffffffff1916827bffffffffffffffffffffffffffffffffffffffffffffffffffffffff191614806116e257506116e182611c2a565b5b9050919050565b5f60025f8381526020019081526020015f205f9054906101000a900473ffffffffffffffffffffffffffffffffffffffff169050919050565b808061175a57505f73ffffffffffffffffffffffffffffffffffffffff168273ffffffffffffffffffffffffffffffffffffffff1614155b1561188c575f61176984610dea565b90505f73ffffffffffffffffffffffffffffffffffffffff168373ffffffffffffffffffffffffffffffffffffffff16141580156117d357508273ffffffffffffffffffffffffffffffffffffffff168173ffffffffffffffffffffffffffffffffffffffff1614155b80156117e657506117e48184610c92565b155b1561182857826040517fa9fbf51f00000000000000000000000000000000000000000000000000000000815260040161181f9190612346565b60405180910390fd5b811561188a57838573ffffffffffffffffffffffffffffffffffffffff168273ffffffffffffffffffffffffffffffffffffffff167f8c5be1e5ebec7d5bd14f71427d1e84f3dd0314c0f7b2291e5b200ac8c7c3b92560405160405180910390a45b505b8360045f8581526020019081526020015f205f6101000a81548173ffffffffffffffffffffffffffffffffffffffff021916908373ffffffffffffffffffffffffffffffffffffffff16021790555050505050565b5f806118ec846116e9565b90505f73ffffffffffffffffffffffffffffffffffffffff168373ffffffffffffffffffffffffffffffffffffffff161461192d5761192c818486611d0b565b5b5f73ffffffffffffffffffffffffffffffffffffffff168173ffffffffffffffffffffffffffffffffffffffff16146119b85761196c5f855f80611722565b600160035f8373ffffffffffffffffffffffffffffffffffffffff1673ffffffffffffffffffffffffffffffffffffffff1681526020019081526020015f205f82825403925050819055505b5f73ffffffffffffffffffffffffffffffffffffffff168573ffffffffffffffffffffffffffffffffffffffff1614611a3757600160035f8773ffffffffffffffffffffffffffffffffffffffff1673ffffffffffffffffffffffffffffffffffffffff1681526020019081526020015f205f82825401925050819055505b8460025f8681526020019081526020015f205f6101000a81548173ffffffffffffffffffffffffffffffffffffffff021916908373ffffffffffffffffffffffffffffffffffffffff160217905550838573ffffffffffffffffffffffffffffffffffffffff168273ffffffffffffffffffffffffffffffffffffffff167fddf252ad1be2c89b69c2b068fc378daa952ba7f163c4a11628f55a4df523b3ef60405160405180910390a4809150509392505050565b611af68282610abf565b611b395780826040517fe2517d3f000000000000000000000000000000000000000000000000000000008152600401611b30929190612efe565b60405180910390fd5b5050565b611b478383611dce565b611b5b611b52610ea9565b5f8585856113c0565b505050565b60605f6001611b6e84611ec1565b0190505f8167ffffffffffffffff811115611b8c57611b8b612536565b5b6040519080825280601f01601f191660200182016040528015611bbe5781602001600182028036833780820191505090505b5090505f82602083010190505b600115611c1f578080600190039150507f3031323334353637383961626364656600000000000000000000000000000000600a86061a8153600a8581611c1457611c13612f25565b5b0494505f8503611bcb575b819350505050919050565b5f7f80ac58cd000000000000000000000000000000000000000000000000000000007bffffffffffffffffffffffffffffffffffffffffffffffffffffffff1916827bffffffffffffffffffffffffffffffffffffffffffffffffffffffff19161480611cf457507f5b5e139f000000000000000000000000000000000000000000000000000000007bffffffffffffffffffffffffffffffffffffffffffffffffffffffff1916827bffffffffffffffffffffffffffffffffffffffffffffffffffffffff1916145b80611d045750611d0382612012565b5b9050919050565b611d1683838361207b565b611dc9575f73ffffffffffffffffffffffffffffffffffffffff168373ffffffffffffffffffffffffffffffffffffffff1603611d8a57806040517f7e273289000000000000000000000000000000000000000000000000000000008152600401611d819190612515565b60405180910390fd5b81816040517f177e802f000000000000000000000000000000000000000000000000000000008152600401611dc0929190612f52565b60405180910390fd5b505050565b5f73ffffffffffffffffffffffffffffffffffffffff168273ffffffffffffffffffffffffffffffffffffffff1603611e3e575f6040517f64a0ae92000000000000000000000000000000000000000000000000000000008152600401611e359190612346565b60405180910390fd5b5f611e4a83835f610ec2565b90505f73ffffffffffffffffffffffffffffffffffffffff168173ffffffffffffffffffffffffffffffffffffffff1614611ebc575f6040517f73c6ac6e000000000000000000000000000000000000000000000000000000008152600401611eb39190612346565b60405180910390fd5b505050565b5f805f90507a184f03e93ff9f4daa797ed6e38ed64bf6a1f0100000000000000008310611f1d577a184f03e93ff9f4daa797ed6e38ed64bf6a1f0100000000000000008381611f1357611f12612f25565b5b0492506040810190505b6d04ee2d6d415b85acef81000000008310611f5a576d04ee2d6d415b85acef81000000008381611f5057611f4f612f25565b5b0492506020810190505b662386f26fc100008310611f8957662386f26fc100008381611f7f57611f7e612f25565b5b0492506010810190505b6305f5e1008310611fb2576305f5e1008381611fa857611fa7612f25565b5b0492506008810190505b6127108310611fd7576127108381611fcd57611fcc612f25565b5b0492506004810190505b60648310611ffa5760648381611ff057611fef612f25565b5b0492506002810190505b600a8310612009576001810190505b80915050919050565b5f7f01ffc9a7000000000000000000000000000000000000000000000000000000007bffffffffffffffffffffffffffffffffffffffffffffffffffffffff1916827bffffffffffffffffffffffffffffffffffffffffffffffffffffffff1916149050919050565b5f8073ffffffffffffffffffffffffffffffffffffffff168373ffffffffffffffffffffffffffffffffffffffff161415801561213257508273ffffffffffffffffffffffffffffffffffffffff168473ffffffffffffffffffffffffffffffffffffffff1614806120f357506120f28484610c92565b5b8061213157508273ffffffffffffffffffffffffffffffffffffffff1661211983610e70565b73ffffffffffffffffffffffffffffffffffffffff16145b5b90509392505050565b5f604051905090565b5f80fd5b5f80fd5b5f7fffffffff0000000000000000000000000000000000000000000000000000000082169050919050565b6121808161214c565b811461218a575f80fd5b50565b5f8135905061219b81612177565b92915050565b5f602082840312156121b6576121b5612144565b5b5f6121c38482850161218d565b91505092915050565b5f8115159050919050565b6121e0816121cc565b82525050565b5f6020820190506121f95f8301846121d7565b92915050565b5f81519050919050565b5f82825260208201905092915050565b5f5b8381101561223657808201518184015260208101905061221b565b5f8484015250505050565b5f601f19601f8301169050919050565b5f61225b826121ff565b6122658185612209565b9350612275818560208601612219565b61227e81612241565b840191505092915050565b5f6020820190508181035f8301526122a18184612251565b905092915050565b5f819050919050565b6122bb816122a9565b81146122c5575f80fd5b50565b5f813590506122d6816122b2565b92915050565b5f602082840312156122f1576122f0612144565b5b5f6122fe848285016122c8565b91505092915050565b5f73ffffffffffffffffffffffffffffffffffffffff82169050919050565b5f61233082612307565b9050919050565b61234081612326565b82525050565b5f6020820190506123595f830184612337565b92915050565b61236881612326565b8114612372575f80fd5b50565b5f813590506123838161235f565b92915050565b5f806040838503121561239f5761239e612144565b5b5f6123ac85828601612375565b92505060206123bd858286016122c8565b9150509250929050565b5f805f606084860312156123de576123dd612144565b5b5f6123eb86828701612375565b93505060206123fc86828701612375565b925050604061240d868287016122c8565b9150509250925092565b5f819050919050565b61242981612417565b8114612433575f80fd5b50565b5f8135905061244481612420565b92915050565b5f6020828403121561245f5761245e612144565b5b5f61246c84828501612436565b91505092915050565b61247e81612417565b82525050565b5f6020820190506124975f830184612475565b92915050565b5f80604083850312156124b3576124b2612144565b5b5f6124c085828601612436565b92505060206124d185828601612375565b9150509250929050565b5f602082840312156124f0576124ef612144565b5b5f6124fd84828501612375565b91505092915050565b61250f816122a9565b82525050565b5f6020820190506125285f830184612506565b92915050565b5f80fd5b5f80fd5b7f4e487b71000000000000000000000000000000000000000000000000000000005f52604160045260245ffd5b61256c82612241565b810181811067ffffffffffffffff8211171561258b5761258a612536565b5b80604052505050565b5f61259d61213b565b90506125a98282612563565b919050565b5f67ffffffffffffffff8211156125c8576125c7612536565b5b6125d182612241565b9050602081019050919050565b828183375f83830152505050565b5f6125fe6125f9846125ae565b612594565b90508281526020810184848401111561261a57612619612532565b5b6126258482856125de565b509392505050565b5f82601f8301126126415761264061252e565b5b81356126518482602086016125ec565b91505092915050565b5f80604083850312156126705761266f612144565b5b5f61267d85828601612375565b925050602083013567ffffffffffffffff81111561269e5761269d612148565b5b6126aa8582860161262d565b9150509250929050565b6126bd816121cc565b81146126c7575f80fd5b50565b5f813590506126d8816126b4565b92915050565b5f80604083850312156126f4576126f3612144565b5b5f61270185828601612375565b9250506020612712858286016126ca565b9150509250929050565b5f67ffffffffffffffff82111561273657612735612536565b5b61273f82612241565b9050602081019050919050565b5f61275e6127598461271c565b612594565b90508281526020810184848401111561277a57612779612532565b5b6127858482856125de565b509392505050565b5f82601f8301126127a1576127a061252e565b5b81356127b184826020860161274c565b91505092915050565b5f805f80608085870312156127d2576127d1612144565b5b5f6127df87828801612375565b94505060206127f087828801612375565b9350506040612801878288016122c8565b925050606085013567ffffffffffffffff81111561282257612821612148565b5b61282e8782880161278d565b91505092959194509250565b5f80604083850312156128505761284f612144565b5b5f61285d85828601612375565b925050602061286e85828601612375565b9150509250929050565b5f60608201905061288b5f8301866121d7565b6128986020830185612337565b81810360408301526128aa8184612251565b9050949350505050565b7f4e487b71000000000000000000000000000000000000000000000000000000005f52602260045260245ffd5b5f60028204905060018216806128f857607f821691505b60208210810361290b5761290a6128b4565b5b50919050565b7f43616c6c6572206973206e6f7420616e206973737565720000000000000000005f82015250565b5f612945601783612209565b915061295082612911565b602082019050919050565b5f6020820190508181035f83015261297281612939565b9050919050565b7f43726564656e7469616c20646f6573206e6f74206578697374000000000000005f82015250565b5f6129ad601983612209565b91506129b882612979565b602082019050919050565b5f6020820190508181035f8301526129da816129a1565b9050919050565b7f43726564656e7469616c20616c7265616479207265766f6b65640000000000005f82015250565b5f612a15601a83612209565b9150612a20826129e1565b602082019050919050565b5f6020820190508181035f830152612a4281612a09565b9050919050565b5f606082019050612a5c5f830186612337565b612a696020830185612506565b612a766040830184612337565b949350505050565b7f4e487b71000000000000000000000000000000000000000000000000000000005f52601160045260245ffd5b5f612ab5826122a9565b91507fffffffffffffffffffffffffffffffffffffffffffffffffffffffffffffffff8203612ae757612ae6612a7e565b5b600182019050919050565b5f81905092915050565b5f612b06826121ff565b612b108185612af2565b9350612b20818560208601612219565b80840191505092915050565b5f612b378285612afc565b9150612b438284612afc565b91508190509392505050565b7f5342543a207472616e736665727320617265206e6f7420616c6c6f77656400005f82015250565b5f612b83601e83612209565b9150612b8e82612b4f565b602082019050919050565b5f6020820190508181035f830152612bb081612b77565b9050919050565b5f819050815f5260205f209050919050565b5f6020601f8301049050919050565b5f82821b905092915050565b5f60088302612c137fffffffffffffffffffffffffffffffffffffffffffffffffffffffffffffffff82612bd8565b612c1d8683612bd8565b95508019841693508086168417925050509392505050565b5f819050919050565b5f612c58612c53612c4e846122a9565b612c35565b6122a9565b9050919050565b5f819050919050565b612c7183612c3e565b612c85612c7d82612c5f565b848454612be4565b825550505050565b5f90565b612c99612c8d565b612ca4818484612c68565b505050565b5b81811015612cc757612cbc5f82612c91565b600181019050612caa565b5050565b601f821115612d0c57612cdd81612bb7565b612ce684612bc9565b81016020851015612cf5578190505b612d09612d0185612bc9565b830182612ca9565b50505b505050565b5f82821c905092915050565b5f612d2c5f1984600802612d11565b1980831691505092915050565b5f612d448383612d1d565b9150826002028217905092915050565b612d5d826121ff565b67ffffffffffffffff811115612d7657612d75612536565b5b612d8082546128e1565b612d8b828285612ccb565b5f60209050601f831160018114612dbc575f8415612daa578287015190505b612db48582612d39565b865550612e1b565b601f198416612dca86612bb7565b5f5b82811015612df157848901518255600182019150602085019450602081019050612dcc565b86831015612e0e5784890151612e0a601f891682612d1d565b8355505b6001600288020188555050505b505050505050565b5f81519050919050565b5f82825260208201905092915050565b5f612e4782612e23565b612e518185612e2d565b9350612e61818560208601612219565b612e6a81612241565b840191505092915050565b5f608082019050612e885f830187612337565b612e956020830186612337565b612ea26040830185612506565b8181036060830152612eb48184612e3d565b905095945050505050565b5f81519050612ecd81612177565b92915050565b5f60208284031215612ee857612ee7612144565b5b5f612ef584828501612ebf565b91505092915050565b5f604082019050612f115f830185612337565b612f1e6020830184612475565b9392505050565b7f4e487b71000000000000000000000000000000000000000000000000000000005f52601260045260245ffd5b5f604082019050612f655f830185612337565b612f726020830184612506565b939250505056fea2646970667358221220cde53fde5daf971a4da6dc86918018f094d5850f9e919363f54d6dc9c2a7525064736f6c63430008180033",
  "linkReferences": {},
  "deployedLinkReferences": {}
}