{
  "_format": "hh-sol-artifact-1",
  "contractName": "CredentialSBT",
  "sourceName": "contracts/CredentialSBT.sol",
  "abi": [
    {
      "inputs": [
        {
          "internalType": "address",
          "name": "defaultAdmin",
          "type": "address"
        }
      ],
      "stateMutability": "nonpayable",
      "type": "constructor"
    },
    {
      "inputs": [],
      "name": "AccessControlBadConfirmation",
      "type": "error"
    },
    {
      "inputs": [
        {
          "internalType": "address",
          "name": "account",
          "type": "address"
        },
        {
          "internalType": "bytes32",
          "name": "neededRole",
          "type": "bytes32"
        }
      ],
      "name": "AccessControlUnauthorizedAccount",
      "type": "error"
    },
    {
      "inputs": [
        {
          "internalType": "address",
          "name": "sender",
          "type": "address"
        },
        {
          "internalType": "uint256",
          "name": "tokenId",
          "type": "uint256"
        },
        {
          "internalType": "address",
          "name": "owner",
          "type": "address"
        }
      ],
      "name": "ERC721IncorrectOwner",
      "type": "error"
    },
    {
      "inputs": [
        {
          "internalType": "address",
          "name": "operator",
          "type": "address"
        },
        {
          "internalType": "uint256",
          "name": "tokenId",
          "type": "uint256"
        }
      ],
      "name": "ERC721InsufficientApproval",
      "type": "error"
    },
    {
      "inputs": [
        {
          "internalType": "address",
          "name": "approver",
          "type": "address"
        }
      ],
      "name": "ERC721InvalidApprover",
      "type": "error"
    },
    {
      "inputs": [
        {
          "internalType": "address",
          "name": "operator",
          "type": "address"
        }
      ],
      "name": "ERC721InvalidOperator",
      "type": "error"
    },
    {
      "inputs": [
        {
          "internalType": "address",
          "name": "owner",
          "type": "address"
        }
      ],
      "name": "ERC721InvalidOwner",
      "type": "error"
    },
    {
      "inputs": [
        {
          "internalType": "address",
          "name": "receiver",
          "type": "address"
        }
      ],
      "name": "ERC721InvalidReceiver",
      "type": "error"
    },
    {
      "inputs": [
        {
          "internalType": "address",
          "name": "sender",
          "type": "address"
        }
      ],
      "name": "ERC721InvalidSender",
      "type": "error"
    },
    {
      "inputs": [
        {
          "internalType": "uint256",
          "name": "tokenId",
          "type": "uint256"
        }
      ],
      "name": "ERC721NonexistentToken",
      "type": "error"
    },
    {
      "anonymous": false,
      "inputs": [
        {
          "indexed": true,
          "internalType": "address",
          "name": "owner",
          "type": "address"
        },
        {
          "indexed": true,
          "internalType": "address",
          "name": "approved",
          "type": "address"
        },
        {
          "indexed": true,
          "internalType": "uint256",
          "name": "tokenId",
          "type": "uint256"
        }
      ],
      "name": "Approval",
      "type": "event"
    },
    {
      "anonymous": false,
      "inputs": [
        {
          "indexed": true,
          "internalType": "address",
          "name": "owner",
          "type": "address"
        },
        {
          "indexed": true,
          "internalType": "address",
          "name": "operator",
          "type": "address"
        },
        {
          "indexed": false,
          "internalType": "bool",
          "name": "approved",
          "type": "bool"
        }
      ],
      "name": "ApprovalForAll",
      "type": "event"
    },
    {
      "anonymous": false,
      "inputs": [
        {
          "indexed": false,
          "internalType": "uint256",
          "name": "_fromTokenId",
          "type": "uint256"
        },
        {
          "indexed": false,
          "internalType": "uint256",
          "name": "_toTokenId",
          "type": "uint256"
        }
      ],
      "name": "BatchMetadataUpdate",
      "type": "event"
    },
    {
      "anonymous": false,
      "inputs": [
        {
          "indexed": true,
          "internalType": "address",
          "name": "to",
          "type": "address"
        },
        {
          "indexed": true,
          "internalType": "uint256",
          "name": "tokenId",
          "type": "uint256"
        },
        {
          "indexed": false,
          "internalType": "string",
          "name": "uri",
          "type": "string"
        }
      ],
      "name": "CredentialIssued",
      "type": "event"
    },
    {
      "anonymous": false,
      "inputs": [
        {
          "indexed": true,
          "internalType": "uint256",
          "name": "tokenId",
          "type": "uint256"
        }
      ],
      "name": "CredentialRevoked",
      "type": "event"
    },
    {
      "anonymous": false,
      "inputs": [
        {
          "indexed": false,
          "internalType": "uint256",
          "name": "_tokenId",
          "type": "uint256"
        }
      ],
      "name": "MetadataUpdate",
      "type": "event"
    },
    {
      "anonymous": false,
      "inputs": [
        {
          "indexed": true,
          "internalType": "bytes32",
          "name": "role",
          "type": "bytes32"
        },
        {
          "indexed": true,
          "internalType": "bytes32",
          "name": "previousAdminRole",
          "type": "bytes32"
        },
        {
          "indexed": true,
          "internalType": "bytes32",
          "name": "newAdminRole",
          "type": "bytes32"
        }
      ],
      "name": "RoleAdminChanged",
      "type": "event"
    },
    {
      "anonymous": false,
      "inputs": [
        {
          "indexed": true,
          "internalType": "bytes32",
          "name": "role",
          "type": "bytes32"
        },
        {
          "indexed": true,
          "internalType": "address",
          "name": "account",
          "type": "address"
        },
        {
          "indexed": true,
          "internalType": "address",
          "name": "sender",
          "type": "address"
        }
      ],
      "name": "RoleGranted",
      "type": "event"
    },
    {
      "anonymous": false,
      "inputs": [
        {
          "indexed": true,
          "internalType": "bytes32",
          "name": "role",
          "type": "bytes32"
        },
        {
          "indexed": true,
          "internalType": "address",
          "name": "account",
          "type": "address"
        },
        {
          "indexed": true,
          "internalType": "address",
          "name": "sender",
          "type": "address"
        }
      ],
      "name": "RoleRevoked",
      "type": "event"
    },
    {
      "anonymous": false,
      "inputs": [
        {
          "indexed": true,
          "internalType": "address",
          "name": "from",
          "type": "address"
        },
        {
          "indexed": true,
          "internalType": "address",
          "name": "to",
          "type": "address"
        },
        {
          "indexed": true,
          "internalType": "uint256",
          "name": "tokenId",
          "type": "uint256"
        }
      ],
      "name": "Transfer",
      "type": "event"
    },
    {
      "inputs": [],
      "name": "DEFAULT_ADMIN_ROLE",
      "outputs": [
        {
          "internalType": "bytes32",
          "name": "",
          "type": "bytes32"
        }
      ],
      "stateMutability": "view",
      "type": "function"
    },
    {
      "inputs": [],
      "name": "ISSUER_ROLE",
      "outputs": [
        {
          "internalType": "bytes32",
          "name": "",
          "type": "bytes32"
        }
      ],
      "stateMutability": "view",
      "type": "function"
    },
    {
      "inputs": [
        {
          "internalType": "address",
          "name": "to",
          "type": "address"
        },
        {
          "internalType": "uint256",
          "name": "tokenId",
          "type": "uint256"
        }
      ],
      "name": "approve",
      "outputs": [],
      "stateMutability": "nonpayable",
      "type": "function"
    },
    {
      "inputs": [
        {
          "internalType": "address",
          "name": "owner",
          "type": "address"
        }
      ],
      "name": "balanceOf",
      "outputs": [
        {
          "internalType": "uint256",
          "name": "",
          "type": "uint256"
        }
      ],
      "stateMutability": "view",
      "type": "function"
    },
    {
      "inputs": [
        {
          "internalType": "uint256",
          "name": "tokenId",
          "type": "uint256"
        }
      ],
      "name": "getApproved",
      "outputs": [
        {
          "internalType": "address",
          "name": "",
          "type": "address"
        }
      ],
      "stateMutability": "view",
      "type": "function"
    },
    {
      "inputs": [
        {
          "internalType": "bytes32",
          "name": "role",
          "type": "bytes32"
        }
      ],
      "name": "getRoleAdmin",
      "outputs": [
        {
          "internalType": "bytes32",
          "name": "",
          "type": "bytes32"
        }
      ],
      "stateMutability": "view",
      "type": "function"
    },
    {
      "inputs": [
        {
          "internalType": "bytes32",
          "name": "role",
          "type": "bytes32"
        },
        {
          "internalType": "address",
          "name": "account",
          "type": "address"
        }
      ],
      "name": "grantRole",
      "outputs": [],
      "stateMutability": "nonpayable",
      "type": "function"
    },
    {
      "inputs": [
        {
          "internalType": "bytes32",
          "name": "role",
          "type": "bytes32"
        },
        {
          "internalType": "address",
          "name": "account",
          "type": "address"
        }
      ],
      "name": "hasRole",
      "outputs": [
        {
          "internalType": "bool",
          "name": "",
          "type": "bool"
        }
      ],
      "stateMutability": "view",
      "type": "function"
    },
    {
      "inputs": [
        {
          "internalType": "address",
          "name": "owner",
          "type": "address"
        },
        {
          "internalType": "address",
          "name": "operator",
          "type": "address"
        }
      ],
      "name": "isApprovedForAll",
      "outputs": [
        {
          "internalType": "bool",
          "name": "",
          "type": "bool"
        }
      ],
      "stateMutability": "view",
      "type": "function"
    },
    {
      "inputs": [
        {
          "internalType": "address",
          "name": "to",
          "type": "address"
        },
        {
          "internalType": "string",
          "name": "uri",
          "type": "string"
        }
      ],
      "name": "issueCredential",
      "outputs": [
        {
          "internalType": "uint256",
          "name": "",
          "type": "uint256"
        }
      ],
      "stateMutability": "nonpayable",
      "type": "function"
    },
    {
      "inputs": [],
      "name": "name",
      "outputs": [
        {
          "internalType": "string",
          "name": "",
          "type": "string"
        }
      ],
      "stateMutability": "view",
      "type": "function"
    },
    {
      "inputs": [
        {
          "internalType": "uint256",
          "name": "tokenId",
          "type": "uint256"
        }
      ],
      "name": "ownerOf",
      "outputs": [
        {
          "internalType": "address",
          "name": "",
          "type": "address"
        }
      ],
      "stateMutability": "view",
      "type": "function"
    },
    {
      "inputs": [
        {
          "internalType": "bytes32",
          "name": "role",
          "type": "bytes32"
        },
        {
          "internalType": "address",
          "name": "callerConfirmation",
          "type": "address"
        }
      ],
      "name": "renounceRole",
      "outputs": [],
      "stateMutability": "nonpayable",
      "type": "function"
    },
    {
      "inputs": [
        {
          "internalType": "uint256",
          "name": "tokenId",
          "type": "uint256"
        }
      ],
      "name": "revokeCredential",
      "outputs": [],
      "stateMutability": "nonpayable",
      "type": "function"
    },
    {
      "inputs": [
        {
          "internalType": "bytes32",
          "name": "role",
          "type": "bytes32"
        },
        {
          "internalType": "address",
          "name": "account",
          "type": "address"
        }
      ],
      "name": "revokeRole",
      "outputs": [],
      "stateMutability": "nonpayable",
      "type": "function"
    },
    {
      "inputs": [
        {
          "internalType": "address",
          "name": "from",
          "type": "address"
        },
        {
          "internalType": "address",
          "name": "to",
          "type": "address"
        },
        {
          "internalType": "uint256",
          "name": "tokenId",
          "type": "uint256"
        }
      ],
      "name": "safeTransferFrom",
      "outputs": [],
      "stateMutability": "nonpayable",
      "type": "function"
    },
    {
      "inputs": [
        {
          "internalType": "address",
          "name": "from",
          "type": "address"
        },
        {
          "internalType": "address",
          "name": "to",
          "type": "address"
        },
        {
          "internalType": "uint256",
          "name": "tokenId",
          "type": "uint256"
        },
        {
          "internalType": "bytes",
          "name": "data",
          "type": "bytes"
        }
      ],
      "name": "safeTransferFrom",
      "outputs": [],
      "stateMutability": "nonpayable",
      "type": "function"
    },
    {
      "inputs": [
        {
          "internalType": "address",
          "name": "operator",
          "type": "address"
        },
        {
          "internalType": "bool",
          "name": "approved",
          "type": "bool"
        }
      ],
      "name": "setApprovalForAll",
      "outputs": [],
      "stateMutability": "nonpayable",
      "type": "function"
    },
    {
      "inputs": [
        {
          "internalType": "bytes4",
          "name": "interfaceId",
          "type": "bytes4"
        }
      ],
      "name": "supportsInterface",
      "outputs": [
        {
          "internalType": "bool",
          "name": "",
          "type": "bool"
        }
      ],
      "stateMutability": "view",
      "type": "function"
    },
    {
      "inputs": [],
      "name": "symbol",
      "outputs": [
        {
          "internalType": "string",
          "name": "",
          "type": "string"
        }
      ],
      "stateMutability": "view",
      "type": "function"
    },
    {
      "inputs": [
        {
          "internalType": "uint256",
          "name": "tokenId",
          "type": "uint256"
        }
      ],
      "name": "tokenURI",
      "outputs": [
        {
          "internalType": "string",
          "name": "",
          "type": "string"
        }
      ],
      "stateMutability": "view",
      "type": "function"
    },
    {
      "inputs": [
        {
          "internalType": "address",
          "name": "from",
          "type": "address"
        },
        {
          "internalType": "address",
          "name": "to",
          "type": "address"
        },
        {
          "internalType": "uint256",
          "name": "tokenId",
          "type": "uint256"
        }
      ],
      "name": "transferFrom",
      "outputs": [],
      "stateMutability": "nonpayable",
      "type": "function"
    },
    {
      "inputs": [
        {
          "internalType": "uint256",
          "name": "tokenId",
          "type": "uint256"
        }
      ],
      "name": "verifyCredential",
      "outputs": [
        {
          "internalType": "bool",
          "name": "",
          "type": "bool"
        },
        {
          "internalType": "address",
          "name": "",
          "type": "address"
        },
        {
          "internalType": "string",
          "name": "",
          "type": "string"
        }
      ],
      "stateMutability": "view",
      "type": "function"
    }
  ],
  "bytecode": "0x608060405234801562000010575f80fd5b50604051620036f3380380620036f38339818101604052810190620000369190620002e2565b6040518060400160405280600d81526020017f43726564656e7469616c534254000000000000000000000000000000000000008152506040518060400160405280600481526020017f4353425400000000000000000000000000000000000000000000000000000000815250815f9081620000b2919062000576565b508060019081620000c4919062000576565b505050620000db5f801b826200011660201b60201c565b506200010e7f114e74f6ea3bd819998f78687bfcb11b140da08e9b7d222fa9c1f1ba1f2aa122826200011660201b60201c565b50506200065a565b5f6200012983836200021260201b60201c565b6200020857600160075f8581526020019081526020015f205f015f8473ffffffffffffffffffffffffffffffffffffffff1673ffffffffffffffffffffffffffffffffffffffff1681526020019081526020015f205f6101000a81548160ff021916908315150217905550620001a46200027660201b60201c565b73ffffffffffffffffffffffffffffffffffffffff168273ffffffffffffffffffffffffffffffffffffffff16847f2f8788117e7eff1d82e926ec794901d17c78024a50270940304540a733656f0d60405160405180910390a4600190506200020c565b5f90505b92915050565b5f60075f8481526020019081526020015f205f015f8373ffffffffffffffffffffffffffffffffffffffff1673ffffffffffffffffffffffffffffffffffffffff1681526020019081526020015f205f9054906101000a900460ff16905092915050565b5f33905090565b5f80fd5b5f73ffffffffffffffffffffffffffffffffffffffff82169050919050565b5f620002ac8262000281565b9050919050565b620002be81620002a0565b8114620002c9575f80fd5b50565b5f81519050620002dc81620002b3565b92915050565b5f60208284031215620002fa57620002f96200027d565b5b5f6200030984828501620002cc565b91505092915050565b5f81519050919050565b7f4e487b71000000000000000000000000000000000000000000000000000000005f52604160045260245ffd5b7f4e487b71000000000000000000000000000000000000000000000000000000005f52602260045260245ffd5b5f60028204905060018216806200038e57607f821691505b602082108103620003a457620003a362000349565b5b50919050565b5f819050815f5260205f209050919050565b5f6020601f8301049050919050565b5f82821b905092915050565b5f60088302620004087fffffffffffffffffffffffffffffffffffffffffffffffffffffffffffffffff82620003cb565b620004148683620003cb565b95508019841693508086168417925050509392505050565b5f819050919050565b5f819050919050565b5f6200045e6200045862000452846200042c565b62000435565b6200042c565b9050919050565b5f819050919050565b62000479836200043e565b62000491620004888262000465565b848454620003d7565b825550505050565b5f90565b620004a762000499565b620004b48184846200046e565b505050565b5b81811015620004db57620004cf5f826200049d565b600181019050620004ba565b5050565b601f8211156200052a57620004f481620003aa565b620004ff84620003bc565b810160208510156200050f578190505b620005276200051e85620003bc565b830182620004b9565b50505b505050565b5f82821c905092915050565b5f6200054c5f19846008026200052f565b1980831691505092915050565b5f6200056683836200053b565b9150826002028217905092915050565b620005818262000312565b67ffffffffffffffff8111156200059d576200059c6200031c565b5b620005a9825462000376565b620005b6828285620004df565b5f60209050601f831160018114620005ec575f8415620005d7578287015190505b620005e3858262000559565b86555062000652565b601f198416620005fc86620003aa565b5f5b828110156200062557848901518255600182019150602085019450602081019050620005fe565b8683101562000645578489015162000641601f8916826200053b565b8355505b6001600288020188555050505b505050505050565b61308b80620006685f395ff3fe608060405234801561000f575f80fd5b506004361061014b575f3560e01c806370a08231116100c1578063a22cb4651161007a578063a22cb465146103bf578063b88d4fde146103db578063c87b56dd146103f7578063d547741f14610427578063e985e9c514610443578063f2a91b1c146104735761014b565b806370a08231146102d557806382aefa241461030557806390c7c49c1461032357806391d148541461035357806395d89b4114610383578063a217fddf146103a15761014b565b806323b872dd1161011357806323b872dd14610205578063248a9ca3146102215780632f2ff15d1461025157806336568abe1461026d57806342842e0e146102895780636352211e146102a55761014b565b806301ffc9a71461014f57806306fdde031461017f578063081812fc1461019d578063095ea7b3146101cd5780631b87278d146101e9575b5f80fd5b610169600480360381019061016491906121cf565b6104a5565b6040516101769190612214565b60405180910390f35b6101876104b6565b60405161019491906122b7565b60405180910390f35b6101b760048036038101906101b2919061230a565b610545565b6040516101c49190612374565b60405180910390f35b6101e760048036038101906101e291906123b7565b610560565b005b61020360048036038101906101fe919061230a565b610576565b005b61021f600480360381019061021a91906123f5565b61070c565b005b61023b60048036038101906102369190612478565b61080b565b60405161024891906124b2565b60405180910390f35b61026b600480360381019061026691906124cb565b610828565b005b610287600480360381019061028291906124cb565b61084a565b005b6102a3600480360381019061029e91906123f5565b6108c5565b005b6102bf60048036038101906102ba919061230a565b6108e4565b6040516102cc9190612374565b60405180910390f35b6102ef60048036038101906102ea9190612509565b6108f5565b6040516102fc9190612543565b60405180910390f35b61030d6109ab565b60405161031a91906124b2565b60405180910390f35b61033d60048036038101906103389190612688565b6109cf565b60405161034a9190612543565b60405180910390f35b61036d600480360381019061036891906124cb565b610aed565b60405161037a9190612214565b60405180910390f35b61038b610b51565b60405161039891906122b7565b60405180910390f35b6103a9610be1565b6040516103b691906124b2565b60405180910390f35b6103d960048036038101906103d4919061270c565b610be7565b005b6103f560048036038101906103f091906127e8565b610bfd565b005b610411600480360381019061040c919061230a565b610c22565b60405161041e91906122b7565b60405180910390f35b610441600480360381019061043c91906124cb565b610c9e565b005b61045d60048036038101906104589190612868565b610cc0565b60405161046a9190612214565b60405180910390f35b61048d6004803603810190610488919061230a565b610d4e565b60405161049c939291906128a6565b60405180910390f35b5f6104af82610d9f565b9050919050565b60605f80546104c49061290f565b80601f01602080910402602001604051908101604052809291908181526020018280546104f09061290f565b801561053b5780601f106105125761010080835404028352916020019161053b565b820191905f5260205f20905b81548152906001019060200180831161051e57829003601f168201915b5050505050905090565b5f61054f82610e18565b5061055982610e9e565b9050919050565b610572828261056d610ed7565b610ede565b5050565b6105a07f114e74f6ea3bd819998f78687bfcb11b140da08e9b7d222fa9c1f1ba1f2aa12233610aed565b6105df576040517f08c379a00000000000000000000000000000000000000000000000000000000081526004016105d690612989565b60405180910390fd5b5f73ffffffffffffffffffffffffffffffffffffffff166105ff826108e4565b73ffffffffffffffffffffffffffffffffffffffff1603610655576040517f08c379a000000000000000000000000000000000000000000000000000000000815260040161064c906129f1565b60405180910390fd5b60095f8281526020019081526020015f205f9054906101000a900460ff16156106b3576040517f08c379a00000000000000000000000000000000000000000000000000000000081526004016106aa90612a59565b60405180910390fd5b600160095f8381526020019081526020015f205f6101000a81548160ff021916908315150217905550807f0d47d5695004d2a4180ebb40037756439184993a0d1c6d4a8ff3a6aa9325607460405160405180910390a250565b5f73ffffffffffffffffffffffffffffffffffffffff168273ffffffffffffffffffffffffffffffffffffffff160361077c575f6040517f64a0ae920000000000000000000000000000000000000000000000000000000081526004016107739190612374565b60405180910390fd5b5f61078f838361078a610ed7565b610ef0565b90508373ffffffffffffffffffffffffffffffffffffffff168173ffffffffffffffffffffffffffffffffffffffff1614610805578382826040517f64283d7b0000000000000000000000000000000000000000000000000000000081526004016107fc93929190612a77565b60405180910390fd5b50505050565b5f60075f8381526020019081526020015f20600101549050919050565b6108318261080b565b61083a81610fb6565b6108448383610fca565b50505050565b610852610ed7565b73ffffffffffffffffffffffffffffffffffffffff168173ffffffffffffffffffffffffffffffffffffffff16146108b6576040517f6697b23200000000000000000000000000000000000000000000000000000000815260040160405180910390fd5b6108c082826110b4565b505050565b6108df83838360405180602001604052805f815250610bfd565b505050565b5f6108ee82610e18565b9050919050565b5f8073ffffffffffffffffffffffffffffffffffffffff168273ffffffffffffffffffffffffffffffffffffffff1603610966575f6040517f89c62b6400000000000000000000000000000000000000000000000000000000815260040161095d9190612374565b60405180910390fd5b60035f8373ffffffffffffffffffffffffffffffffffffffff1673ffffffffffffffffffffffffffffffffffffffff1681526020019081526020015f20549050919050565b7f114e74f6ea3bd819998f78687bfcb11b140da08e9b7d222fa9c1f1ba1f2aa12281565b5f6109fa7f114e74f6ea3bd819998f78687bfcb11b140da08e9b7d222fa9c1f1ba1f2aa12233610aed565b610a39576040517f08c379a0000000000000000000000000000000000000000000000000000000008152600401610a3090612989565b60405180910390fd5b5f83834260085f815480929190610a4f90612ad9565b91905055604051602001610a669493929190612bbf565b604051602081830303815290604052805190602001205f1c9050610a8a848261119e565b610a9481846111bb565b808473ffffffffffffffffffffffffffffffffffffffff167f878af15bdbd77fda76749958672993937bbbcbd73501fdc8989af2ff8c95aebe85604051610adb91906122b7565b60405180910390a38091505092915050565b5f60075f8481526020019081526020015f205f015f8373ffffffffffffffffffffffffffffffffffffffff1673ffffffffffffffffffffffffffffffffffffffff1681526020019081526020015f205f9054906101000a900460ff16905092915050565b606060018054610b609061290f565b80601f0160208091040260200160405190810160405280929190818152602001828054610b8c9061290f565b8015610bd75780601f10610bae57610100808354040283529160200191610bd7565b820191905f5260205f20905b815481529060010190602001808311610bba57829003601f168201915b5050505050905090565b5f801b81565b610bf9610bf2610ed7565b8383611215565b5050565b610c0884848461070c565b610c1c610c13610ed7565b858585856113ee565b50505050565b6060610c2d82610e18565b505f610c3761159a565b90505f610c43846115b0565b90505f825103610c57578092505050610c99565b5f81511115610c8b578181604051602001610c73929190612c08565b60405160208183030381529060405292505050610c99565b610c9484611651565b925050505b919050565b610ca78261080b565b610cb081610fb6565b610cba83836110b4565b50505050565b5f60055f8473ffffffffffffffffffffffffffffffffffffffff1673ffffffffffffffffffffffffffffffffffffffff1681526020019081526020015f205f8373ffffffffffffffffffffffffffffffffffffffff1673ffffffffffffffffffffffffffffffffffffffff1681526020019081526020015f205f9054906101000a900460ff16905092915050565b5f8060605f610d5c856108e4565b90505f60095f8781526020019081526020015f205f9054906101000a900460ff1690505f610d8987610c22565b9050811583829550955095505050509193909250565b5f7f7965db0b000000000000000000000000000000000000000000000000000000007bffffffffffffffffffffffffffffffffffffffffffffffffffffffff1916827bffffffffffffffffffffffffffffffffffffffffffffffffffffffff19161480610e115750610e10826116b7565b5b9050919050565b5f80610e2383611717565b90505f73ffffffffffffffffffffffffffffffffffffffff168173ffffffffffffffffffffffffffffffffffffffff1603610e9557826040517f7e273289000000000000000000000000000000000000000000000000000000008152600401610e8c9190612543565b60405180910390fd5b80915050919050565b5f60045f8381526020019081526020015f205f9054906101000a900473ffffffffffffffffffffffffffffffffffffffff169050919050565b5f33905090565b610eeb8383836001611750565b505050565b5f80610efb84611717565b90505f73ffffffffffffffffffffffffffffffffffffffff168173ffffffffffffffffffffffffffffffffffffffff161480610f6257505f73ffffffffffffffffffffffffffffffffffffffff168573ffffffffffffffffffffffffffffffffffffffff16145b610fa1576040517f08c379a0000000000000000000000000000000000000000000000000000000008152600401610f9890612c75565b60405180910390fd5b610fac85858561190f565b9150509392505050565b610fc781610fc2610ed7565b611b1a565b50565b5f610fd58383610aed565b6110aa57600160075f8581526020019081526020015f205f015f8473ffffffffffffffffffffffffffffffffffffffff1673ffffffffffffffffffffffffffffffffffffffff1681526020019081526020015f205f6101000a81548160ff021916908315150217905550611047610ed7565b73ffffffffffffffffffffffffffffffffffffffff168273ffffffffffffffffffffffffffffffffffffffff16847f2f8788117e7eff1d82e926ec794901d17c78024a50270940304540a733656f0d60405160405180910390a4600190506110ae565b5f90505b92915050565b5f6110bf8383610aed565b15611194575f60075f8581526020019081526020015f205f015f8473ffffffffffffffffffffffffffffffffffffffff1673ffffffffffffffffffffffffffffffffffffffff1681526020019081526020015f205f6101000a81548160ff021916908315150217905550611131610ed7565b73ffffffffffffffffffffffffffffffffffffffff168273ffffffffffffffffffffffffffffffffffffffff16847ff6391f5c32d9c69d2a47ea670b442974b53935d1edc7fd64eb21e047a839171b60405160405180910390a460019050611198565b5f90505b92915050565b6111b7828260405180602001604052805f815250611b6b565b5050565b8060065f8481526020019081526020015f2090816111d99190612e30565b507ff8e1a15aba9398e019f0b49df1a4fde98ee17ae345cb5f6b5e2c27f5033e8ce7826040516112099190612543565b60405180910390a15050565b5f73ffffffffffffffffffffffffffffffffffffffff168373ffffffffffffffffffffffffffffffffffffffff1603611285575f6040517fa9fbf51f00000000000000000000000000000000000000000000000000000000815260040161127c9190612374565b60405180910390fd5b5f73ffffffffffffffffffffffffffffffffffffffff168273ffffffffffffffffffffffffffffffffffffffff16036112f557816040517f5b08ba180000000000000000000000000000000000000000000000000000000081526004016112ec9190612374565b60405180910390fd5b8060055f8573ffffffffffffffffffffffffffffffffffffffff1673ffffffffffffffffffffffffffffffffffffffff1681526020019081526020015f205f8473ffffffffffffffffffffffffffffffffffffffff1673ffffffffffffffffffffffffffffffffffffffff1681526020019081526020015f205f6101000a81548160ff0219169083151502179055508173ffffffffffffffffffffffffffffffffffffffff168373ffffffffffffffffffffffffffffffffffffffff167f17307eab39ab6107e8899845ad3d59bd9653f200f220920489ca2b5937696c31836040516113e19190612214565b60405180910390a3505050565b5f8373ffffffffffffffffffffffffffffffffffffffff163b1115611593578273ffffffffffffffffffffffffffffffffffffffff1663150b7a02868685856040518563ffffffff1660e01b815260040161144c9493929190612f51565b6020604051808303815f875af192505050801561148757506040513d601f19601f820116820180604052508101906114849190612faf565b60015b611508573d805f81146114b5576040519150601f19603f3d011682016040523d82523d5f602084013e6114ba565b606091505b505f81510361150057836040517f64a0ae920000000000000000000000000000000000000000000000000000000081526004016114f79190612374565b60405180910390fd5b805160208201fd5b63150b7a0260e01b7bffffffffffffffffffffffffffffffffffffffffffffffffffffffff1916817bffffffffffffffffffffffffffffffffffffffffffffffffffffffff19161461159157836040517f64a0ae920000000000000000000000000000000000000000000000000000000081526004016115889190612374565b60405180910390fd5b505b5050505050565b606060405180602001604052805f815250905090565b606060065f8381526020019081526020015f2080546115ce9061290f565b80601f01602080910402602001604051908101604052809291908181526020018280546115fa9061290f565b80156116455780601f1061161c57610100808354040283529160200191611645565b820191905f5260205f20905b81548152906001019060200180831161162857829003601f168201915b50505050509050919050565b606061165c82610e18565b505f61166661159a565b90505f8151116116845760405180602001604052805f8152506116af565b8061168e84611b8e565b60405160200161169f929190612c08565b6040516020818303038152906040525b915050919050565b5f634906490660e01b7bffffffffffffffffffffffffffffffffffffffffffffffffffffffff1916827bffffffffffffffffffffffffffffffffffffffffffffffffffffffff19161480611710575061170f82611c58565b5b9050919050565b5f60025f8381526020019081526020015f205f9054906101000a900473ffffffffffffffffffffffffffffffffffffffff169050919050565b808061178857505f73ffffffffffffffffffffffffffffffffffffffff168273ffffffffffffffffffffffffffffffffffffffff1614155b156118ba575f61179784610e18565b90505f73ffffffffffffffffffffffffffffffffffffffff168373ffffffffffffffffffffffffffffffffffffffff161415801561180157508273ffffffffffffffffffffffffffffffffffffffff168173ffffffffffffffffffffffffffffffffffffffff1614155b801561181457506118128184610cc0565b155b1561185657826040517fa9fbf51f00000000000000000000000000000000000000000000000000000000815260040161184d9190612374565b60405180910390fd5b81156118b857838573ffffffffffffffffffffffffffffffffffffffff168273ffffffffffffffffffffffffffffffffffffffff167f8c5be1e5ebec7d5bd14f71427d1e84f3dd0314c0f7b2291e5b200ac8c7c3b92560405160405180910390a45b505b8360045f8581526020019081526020015f205f6101000a81548173ffffffffffffffffffffffffffffffffffffffff021916908373ffffffffffffffffffffffffffffffffffffffff16021790555050505050565b5f8061191a84611717565b90505f73ffffffffffffffffffffffffffffffffffffffff168373ffffffffffffffffffffffffffffffffffffffff161461195b5761195a818486611d39565b5b5f73ffffffffffffffffffffffffffffffffffffffff168173ffffffffffffffffffffffffffffffffffffffff16146119e65761199a5f855f80611750565b600160035f8373ffffffffffffffffffffffffffffffffffffffff1673ffffffffffffffffffffffffffffffffffffffff1681526020019081526020015f205f82825403925050819055505b5f73ffffffffffffffffffffffffffffffffffffffff168573ffffffffffffffffffffffffffffffffffffffff1614611a6557600160035f8773ffffffffffffffffffffffffffffffffffffffff1673ffffffffffffffffffffffffffffffffffffffff1681526020019081526020015f205f82825401925050819055505b8460025f8681526020019081526020015f205f6101000a81548173ffffffffffffffffffffffffffffffffffffffff021916908373ffffffffffffffffffffffffffffffffffffffff160217905550838573ffffffffffffffffffffffffffffffffffffffff168273ffffffffffffffffffffffffffffffffffffffff167fddf252ad1be2c89b69c2b068fc378daa952ba7f163c4a11628f55a4df523b3ef60405160405180910390a4809150509392505050565b611b248282610aed565b611b675780826040517fe2517d3f000000000000000000000000000000000000000000000000000000008152600401611b5e929190612fda565b60405180910390fd5b5050565b611b758383611dfc565b611b89611b80610ed7565b5f8585856113ee565b505050565b60605f6001611b9c84611eef565b0190505f8167ffffffffffffffff811115611bba57611bb9612564565b5b6040519080825280601f01601f191660200182016040528015611bec5781602001600182028036833780820191505090505b5090505f82602083010190505b600115611c4d578080600190039150507f3031323334353637383961626364656600000000000000000000000000000000600a86061a8153600a8581611c4257611c41613001565b5b0494505f8503611bf9575b819350505050919050565b5f7f80ac58cd000000000000000000000000000000000000000000000000000000007bffffffffffffffffffffffffffffffffffffffffffffffffffffffff1916827bffffffffffffffffffffffffffffffffffffffffffffffffffffffff19161480611d2257507f5b5e139f000000000000000000000000000000000000000000000000000000007bffffffffffffffffffffffffffffffffffffffffffffffffffffffff1916827bffffffffffffffffffffffffffffffffffffffffffffffffffffffff1916145b80611d325750611d3182612040565b5b9050919050565b611d448383836120a9565b611df7575f73ffffffffffffffffffffffffffffffffffffffff168373ffffffffffffffffffffffffffffffffffffffff1603611db857806040517f7e273289000000000000000000000000000000000000000000000000000000008152600401611daf9190612543565b60405180910390fd5b81816040517f177e802f000000000000000000000000000000000000000000000000000000008152600401611dee92919061302e565b60405180910390fd5b505050565b5f73ffffffffffffffffffffffffffffffffffffffff168273ffffffffffffffffffffffffffffffffffffffff1603611e6c575f6040517f64a0ae92000000000000000000000000000000000000000000000000000000008152600401611e639190612374565b60405180910390fd5b5f611e7883835f610ef0565b90505f73ffffffffffffffffffffffffffffffffffffffff168173ffffffffffffffffffffffffffffffffffffffff1614611eea575f6040517f73c6ac6e000000000000000000000000000000000000000000000000000000008152600401611ee19190612374565b60405180910390fd5b505050565b5f805f90507a184f03e93ff9f4daa797ed6e38ed64bf6a1f0100000000000000008310611f4b577a184f03e93ff9f4daa797ed6e38ed64bf6a1f0100000000000000008381611f4157611f40613001565b5b0492506040810190505b6d04ee2d6d415b85acef81000000008310611f88576d04ee2d6d415b85acef81000000008381611f7e57611f7d613001565b5b0492506020810190505b662386f26fc100008310611fb757662386f26fc100008381611fad57611fac613001565b5b0492506010810190505b6305f5e1008310611fe0576305f5e1008381611fd657611fd5613001565b5b0492506008810190505b6127108310612005576127108381611ffb57611ffa613001565b5b0492506004810190505b60648310612028576064838161201e5761201d613001565b5b0492506002810190505b600a8310612037576001810190505b80915050919050565b5f7f01ffc9a7000000000000000000000000000000000000000000000000000000007bffffffffffffffffffffffffffffffffffffffffffffffffffffffff1916827bffffffffffffffffffffffffffffffffffffffffffffffffffffffff1916149050919050565b5f8073ffffffffffffffffffffffffffffffffffffffff168373ffffffffffffffffffffffffffffffffffffffff161415801561216057508273ffffffffffffffffffffffffffffffffffffffff168473ffffffffffffffffffffffffffffffffffffffff16148061212157506121208484610cc0565b5b8061215f57508273ffffffffffffffffffffffffffffffffffffffff1661214783610e9e565b73ffffffffffffffffffffffffffffffffffffffff16145b5b90509392505050565b5f604051905090565b5f80fd5b5f80fd5b5f7fffffffff0000000000000000000000000000000000000000000000000000000082169050919050565b6121ae8161217a565b81146121b8575f80fd5b50565b5f813590506121c9816121a5565b92915050565b5f602082840312156121e4576121e3612172565b5b5f6121f1848285016121bb565b91505092915050565b5f8115159050919050565b61220e816121fa565b82525050565b5f6020820190506122275f830184612205565b92915050565b5f81519050919050565b5f82825260208201905092915050565b5f5b83811015612264578082015181840152602081019050612249565b5f8484015250505050565b5f601f19601f8301169050919050565b5f6122898261222d565b6122938185612237565b93506122a3818560208601612247565b6122ac8161226f565b840191505092915050565b5f6020820190508181035f8301526122cf818461227f565b905092915050565b5f819050919050565b6122e9816122d7565b81146122f3575f80fd5b50565b5f81359050612304816122e0565b92915050565b5f6020828403121561231f5761231e612172565b5b5f61232c848285016122f6565b91505092915050565b5f73ffffffffffffffffffffffffffffffffffffffff82169050919050565b5f61235e82612335565b9050919050565b61236e81612354565b82525050565b5f6020820190506123875f830184612365565b92915050565b61239681612354565b81146123a0575f80fd5b50565b5f813590506123b18161238d565b92915050565b5f80604083850312156123cd576123cc612172565b5b5f6123da858286016123a3565b92505060206123eb858286016122f6565b9150509250929050565b5f805f6060848603121561240c5761240b612172565b5b5f612419868287016123a3565b935050602061242a868287016123a3565b925050604061243b868287016122f6565b9150509250925092565b5f819050919050565b61245781612445565b8114612461575f80fd5b50565b5f813590506124728161244e565b92915050565b5f6020828403121561248d5761248c612172565b5b5f61249a84828501612464565b91505092915050565b6124ac81612445565b82525050565b5f6020820190506124c55f8301846124a3565b92915050565b5f80604083850312156124e1576124e0612172565b5b5f6124ee85828601612464565b92505060206124ff858286016123a3565b9150509250929050565b5f6020828403121561251e5761251d612172565b5b5f61252b848285016123a3565b91505092915050565b61253d816122d7565b82525050565b5f6020820190506125565f830184612534565b92915050565b5f80fd5b5f80fd5b7f4e487b71000000000000000000000000000000000000000000000000000000005f52604160045260245ffd5b61259a8261226f565b810181811067ffffffffffffffff821117156125b9576125b8612564565b5b80604052505050565b5f6125cb612169565b90506125d78282612591565b919050565b5f67ffffffffffffffff8211156125f6576125f5612564565b5b6125ff8261226f565b9050602081019050919050565b828183375f83830152505050565b5f61262c612627846125dc565b6125c2565b90508281526020810184848401111561264857612647612560565b5b61265384828561260c565b509392505050565b5f82601f83011261266f5761266e61255c565b5b813561267f84826020860161261a565b91505092915050565b5f806040838503121561269e5761269d612172565b5b5f6126ab858286016123a3565b925050602083013567ffffffffffffffff8111156126cc576126cb612176565b5b6126d88582860161265b565b9150509250929050565b6126eb816121fa565b81146126f5575f80fd5b50565b5f81359050612706816126e2565b92915050565b5f806040838503121561272257612721612172565b5b5f61272f858286016123a3565b9250506020612740858286016126f8565b9150509250929050565b5f67ffffffffffffffff82111561276457612763612564565b5b61276d8261226f565b9050602081019050919050565b5f61278c6127878461274a565b6125c2565b9050828152602081018484840111156127a8576127a7612560565b5b6127b384828561260c565b509392505050565b5f82601f8301126127cf576127ce61255c565b5b81356127df84826020860161277a565b91505092915050565b5f805f8060808587031215612800576127ff612172565b5b5f61280d878288016123a3565b945050602061281e878288016123a3565b935050604061282f878288016122f6565b925050606085013567ffffffffffffffff8111156128505761284f612176565b5b61285c878288016127bb565b91505092959194509250565b5f806040838503121561287e5761287d612172565b5b5f61288b858286016123a3565b925050602061289c858286016123a3565b9150509250929050565b5f6060820190506128b95f830186612205565b6128c66020830185612365565b81810360408301526128d8818461227f565b9050949350505050565b7f4e487b71000000000000000000000000000000000000000000000000000000005f52602260045260245ffd5b5f600282049050600182168061292657607f821691505b602082108103612939576129386128e2565b5b50919050565b7f43616c6c6572206973206e6f7420616e206973737565720000000000000000005f82015250565b5f612973601783612237565b915061297e8261293f565b602082019050919050565b5f6020820190508181035f8301526129a081612967565b9050919050565b7f43726564656e7469616c20646f6573206e6f74206578697374000000000000005f82015250565b5f6129db601983612237565b91506129e6826129a7565b602082019050919050565b5f6020820190508181035f830152612a08816129cf565b9050919050565b7f43726564656e7469616c20616c7265616479207265766f6b65640000000000005f82015250565b5f612a43601a83612237565b9150612a4e82612a0f565b602082019050919050565b5f6020820190508181035f830152612a7081612a37565b9050919050565b5f606082019050612a8a5f830186612365565b612a976020830185612534565b612aa46040830184612365565b949350505050565b7f4e487b71000000000000000000000000000000000000000000000000000000005f52601160045260245ffd5b5f612ae3826122d7565b91507fffffffffffffffffffffffffffffffffffffffffffffffffffffffffffffffff8203612b1557612b14612aac565b5b600182019050919050565b5f8160601b9050919050565b5f612b3682612b20565b9050919050565b5f612b4782612b2c565b9050919050565b612b5f612b5a82612354565b612b3d565b82525050565b5f81905092915050565b5f612b798261222d565b612b838185612b65565b9350612b93818560208601612247565b80840191505092915050565b5f819050919050565b612bb9612bb4826122d7565b612b9f565b82525050565b5f612bca8287612b4e565b601482019150612bda8286612b6f565b9150612be68285612ba8565b602082019150612bf68284612ba8565b60208201915081905095945050505050565b5f612c138285612b6f565b9150612c1f8284612b6f565b91508190509392505050565b7f5342543a207472616e736665727320617265206e6f7420616c6c6f77656400005f82015250565b5f612c5f601e83612237565b9150612c6a82612c2b565b602082019050919050565b5f6020820190508181035f830152612c8c81612c53565b9050919050565b5f819050815f5260205f209050919050565b5f6020601f8301049050919050565b5f82821b905092915050565b5f60088302612cef7fffffffffffffffffffffffffffffffffffffffffffffffffffffffffffffffff82612cb4565b612cf98683612cb4565b95508019841693508086168417925050509392505050565b5f819050919050565b5f612d34612d2f612d2a846122d7565b612d11565b6122d7565b9050919050565b5f819050919050565b612d4d83612d1a565b612d61612d5982612d3b565b848454612cc0565b825550505050565b5f90565b612d75612d69565b612d80818484612d44565b505050565b5b81811015612da357612d985f82612d6d565b600181019050612d86565b5050565b601f821115612de857612db981612c93565b612dc284612ca5565b81016020851015612dd1578190505b612de5612ddd85612ca5565b830182612d85565b50505b505050565b5f82821c905092915050565b5f612e085f1984600802612ded565b1980831691505092915050565b5f612e208383612df9565b9150826002028217905092915050565b612e398261222d565b67ffffffffffffffff811115612e5257612e51612564565b5b612e5c825461290f565b612e67828285612da7565b5f60209050601f831160018114612e98575f8415612e86578287015190505b612e908582612e15565b865550612ef7565b601f198416612ea686612c93565b5f5b82811015612ecd57848901518255600182019150602085019450602081019050612ea8565b86831015612eea5784890151612ee6601f891682612df9565b8355505b6001600288020188555050505b505050505050565b5f81519050919050565b5f82825260208201905092915050565b5f612f2382612eff565b612f2d8185612f09565b9350612f3d818560208601612247565b612f468161226f565b840191505092915050565b5f608082019050612f645f830187612365565b612f716020830186612365565b612f7e6040830185612534565b8181036060830152612f908184612f19565b905095945050505050565b5f81519050612fa9816121a5565b92915050565b5f60208284031215612fc457612fc3612172565b5b5f612fd184828501612f9b565b91505092915050565b5f604082019050612fed5f830185612365565b612ffa60208301846124a3565b9392505050565b7f4e487b71000000000000000000000000000000000000000000000000000000005f52601260045260245ffd5b5f6040820190506130415f830185612365565b61304e6020830184612534565b939250505056fea2646970667358221220f3849493152d0ba841e041fbb54d25c7e68f2b9068595d0c232db0f3306a53df64736f6c63430008180033",
  "linkReferences": {},
  "deployedLinkReferences": {}
}